{
  "contractName": "borrowlist",
  "abi": [
    {
      "constant": true,
      "inputs": [
        {
          "name": "",
          "type": "uint256"
        }
      ],
      "name": "borrows",
      "outputs": [
        {
          "name": "",
          "type": "address"
        }
      ],
      "payable": false,
      "stateMutability": "view",
      "type": "function"
    },
    {
      "constant": false,
      "inputs": [
        {
          "name": "_address",
          "type": "address"
        }
      ],
      "name": "addborrow",
      "outputs": [
        {
          "name": "",
          "type": "uint256"
        }
      ],
      "payable": false,
      "stateMutability": "nonpayable",
      "type": "function"
    },
    {
      "constant": true,
      "inputs": [],
      "name": "getborrowsCount",
      "outputs": [
        {
          "name": "",
          "type": "uint256"
        }
      ],
      "payable": false,
      "stateMutability": "view",
      "type": "function"
    },
    {
      "constant": true,
      "inputs": [
        {
          "name": "index",
          "type": "uint256"
        }
      ],
      "name": "getborrow",
      "outputs": [
        {
          "name": "",
          "type": "address"
        }
      ],
      "payable": false,
      "stateMutability": "view",
      "type": "function"
    }
  ],
  "bytecode": "0x608060405234801561001057600080fd5b5061034f806100206000396000f300608060405260043610610062576000357c0100000000000000000000000000000000000000000000000000000000900463ffffffff168063191e9d7c14610067578063791ed9fd146100d4578063b08b991814610141578063ba6afa2314610198575b600080fd5b34801561007357600080fd5b50610092600480360381019080803590602001909291905050506101c3565b604051808273ffffffffffffffffffffffffffffffffffffffff1673ffffffffffffffffffffffffffffffffffffffff16815260200191505060405180910390f35b3480156100e057600080fd5b506100ff60048036038101908080359060200190929190505050610201565b604051808273ffffffffffffffffffffffffffffffffffffffff1673ffffffffffffffffffffffffffffffffffffffff16815260200191505060405180910390f35b34801561014d57600080fd5b50610182600480360381019080803573ffffffffffffffffffffffffffffffffffffffff169060200190929190505050610243565b6040518082815260200191505060405180910390f35b3480156101a457600080fd5b506101ad6102c6565b6040518082815260200191505060405180910390f35b6000818154811015156101d257fe5b906000526020600020016000915054906101000a900473ffffffffffffffffffffffffffffffffffffffff1681565b6000808281548110151561021157fe5b9060005260206000200160009054906101000a900473ffffffffffffffffffffffffffffffffffffffff169050919050565b600080805480919060010161025891906102d2565b5081600060016000805490500381548110151561027157fe5b9060005260206000200160006101000a81548173ffffffffffffffffffffffffffffffffffffffff021916908373ffffffffffffffffffffffffffffffffffffffff1602179055506000805490509050919050565b60008080549050905090565b8154818355818111156102f9578183600052602060002091820191016102f891906102fe565b5b505050565b61032091905b8082111561031c576000816000905550600101610304565b5090565b905600a165627a7a723058203d32d222017d77d415b015909f3b681a83a9ef937b2c21df36c2d55e4d039cba0029",
  "source": "pragma solidity ^0.4.11;\r\ncontract borrowlist {\r\n\taddress[] public borrows;\r\n    \r\n    function addborrow(address _address) public returns(uint) {\r\n        borrows.length++;\r\n        borrows[borrows.length-1]= _address;\r\n        \r\n        return borrows.length;\r\n    }\r\n    function getborrowsCount() public constant returns(uint) {\r\n        return borrows.length;\r\n    }\r\n\r\n    function getborrow(uint index) public constant returns(address) {\r\n        return borrows[index];\r\n    }\r\n}",
  "sourcePath": "e:\\Internship\\p2p\\contracts\\borrowlist.sol",
  "compiler": {
    "name": "solc",
    "version": "0.4.24+commit.e67f0147.Emscripten.clang"
  },
  "schemaVersion": "2.0.0",
  "updatedAt": "2018-06-28T05:39:03.464Z"
}