{
  "contractName": "TokenList",
  "abi": [
    {
      "constant": true,
      "inputs": [
        {
          "name": "",
          "type": "uint256"
        }
      ],
      "name": "tokens",
      "outputs": [
        {
          "name": "",
          "type": "address"
        }
      ],
      "payable": false,
      "stateMutability": "view",
      "type": "function"
    },
    {
      "constant": false,
      "inputs": [
        {
          "name": "_address",
          "type": "address"
        }
      ],
      "name": "addToken",
      "outputs": [
        {
          "name": "",
          "type": "uint256"
        }
      ],
      "payable": false,
      "stateMutability": "nonpayable",
      "type": "function"
    },
    {
      "constant": true,
      "inputs": [],
      "name": "getTokensCount",
      "outputs": [
        {
          "name": "",
          "type": "uint256"
        }
      ],
      "payable": false,
      "stateMutability": "view",
      "type": "function"
    },
    {
      "constant": true,
      "inputs": [
        {
          "name": "index",
          "type": "uint256"
        }
      ],
      "name": "getToken",
      "outputs": [
        {
          "name": "",
          "type": "address"
        }
      ],
      "payable": false,
      "stateMutability": "view",
      "type": "function"
    }
  ],
  "bytecode": "0x608060405234801561001057600080fd5b5061034f806100206000396000f300608060405260043610610062576000357c0100000000000000000000000000000000000000000000000000000000900463ffffffff1680633962f82d146100675780634f64b2be14610092578063d48bfca7146100ff578063e4b50cb814610156575b600080fd5b34801561007357600080fd5b5061007c6101c3565b6040518082815260200191505060405180910390f35b34801561009e57600080fd5b506100bd600480360381019080803590602001909291905050506101cf565b604051808273ffffffffffffffffffffffffffffffffffffffff1673ffffffffffffffffffffffffffffffffffffffff16815260200191505060405180910390f35b34801561010b57600080fd5b50610140600480360381019080803573ffffffffffffffffffffffffffffffffffffffff16906020019092919050505061020d565b6040518082815260200191505060405180910390f35b34801561016257600080fd5b5061018160048036038101908080359060200190929190505050610290565b604051808273ffffffffffffffffffffffffffffffffffffffff1673ffffffffffffffffffffffffffffffffffffffff16815260200191505060405180910390f35b60008080549050905090565b6000818154811015156101de57fe5b906000526020600020016000915054906101000a900473ffffffffffffffffffffffffffffffffffffffff1681565b600080805480919060010161022291906102d2565b5081600060016000805490500381548110151561023b57fe5b9060005260206000200160006101000a81548173ffffffffffffffffffffffffffffffffffffffff021916908373ffffffffffffffffffffffffffffffffffffffff1602179055506000805490509050919050565b600080828154811015156102a057fe5b9060005260206000200160009054906101000a900473ffffffffffffffffffffffffffffffffffffffff169050919050565b8154818355818111156102f9578183600052602060002091820191016102f891906102fe565b5b505050565b61032091905b8082111561031c576000816000905550600101610304565b5090565b905600a165627a7a7230582039ed3836d57f758f57e9a39e1a06d744c60f2e589a7f24ae712223bcee5d61640029",
  "source": "pragma solidity ^0.4.11;\r\ncontract TokenList {\r\n\taddress[] public tokens;\r\n    \r\n    function addToken(address _address) public returns(uint) {\r\n        tokens.length++;\r\n        tokens[tokens.length-1]= _address;\r\n        \r\n        return tokens.length;\r\n    }\r\n    function getTokensCount() public constant returns(uint) {\r\n        return tokens.length;\r\n    }\r\n\r\n    function getToken(uint index) public constant returns(address) {\r\n        return tokens[index];\r\n    }\r\n}",
  "sourcePath": "e:\\Internship\\p2p\\contracts\\TokenList.sol",
  "compiler": {
    "name": "solc",
    "version": "0.4.24+commit.e67f0147.Emscripten.clang"
  },
  "schemaVersion": "2.0.0",
  "updatedAt": "2018-06-28T05:39:03.259Z"
}